:020000040000FA
:1000000000040020810A000015070000610A0000BA
:100010001F07000029070000330700000000000050
:10002000000000000000000000000000A50A000021
:100030003D070000000000004707000051070000D6
:100040005B070000650700006F07000079070000EC
:10005000830700008D07000097070000A10700003C
:10006000AB070000B5070000BF070000C90700008C
:10007000D3070000DD070000E7070000F1070000DC
:10008000FB070000050800000F0800001908000029
:10009000230800002D080000370800004108000078
:1000A0004B080000550800005F08000069080000C8
:1000B000730800007D080000870800009108000018
:1000C0009B080000A5080000AF080000B908000068
:1000D000C3080000CD080000D7080000E1080000B8
:1000E000EB080000F5080000FF0800000909000007
:1000F000130900001D090000270900003109000054
:100100003B0900001FB500F003F88DE80F001FBD8C
:1001100000F0ACBC40F6FC7108684FF01022401CA7
:1001200008D00868401C09D00868401C04D0086842
:1001300000F037BA9069F5E79069F9E7704770B554
:100140000B46010B184400F6FF70040B4FF0805073
:100150000022090303692403406943431D1B104621
:1001600000F048FA29462046BDE8704000F042BA47
:10017000F0B54FF6FF734FF4B4751A466E1E11E0DA
:10018000A94201D3344600E00C46091B30F8027B3B
:10019000641E3B441A44F9D19CB204EB134394B25D
:1001A00004EB12420029EBD198B200EB134002EBB2
:1001B000124140EA0140F0BDF34992B00446D1E952
:1001C0000001CDE91001FF224021684600F0F4FB58
:1001D00094E80F008DE80F00684610A902E004C8FB
:1001E00041F8042D8842FAD110216846FFF7C0FF7C
:1001F0001090AA208DF8440000F099F9FFF78AFFCB
:1002000040F6FC7420684FF01025401C0FD0206889
:1002100010226946803000F078F92068401C08D030
:100220002068082210A900F070F900F061F9A869AF
:10023000EEE7A869F5E74FF080500369406940F6A2
:10024000FC71434308684FF01022401C06D0086838
:1002500000F58050834203D2092070479069F7E788
:100260000868401C04D00868401C03D00020704778
:100270009069F9E70420704770B504460068C34DE3
:10028000072876D2DFE800F033041929631E250021
:10029000D4E9026564682946304600F062F92A46CE
:1002A0002146304600F031F9AA002146304600F0E0
:1002B00057FB002800D0032070BD00F009FC4FF46C
:1002C000805007E0201D00F040F90028F4D100F034
:1002D000FFFB60682860002070BD241D94E80700C3
:1002E000920000F03DFB0028F6D00E2070BDFFF715
:1002F000A2FF0028FAD1D4E901034FF0805100EBAE
:10030000830208694D69684382420ED840F6F8704E
:1003100005684FF010226D1C09D0056805EB8305B8
:100320000B6949694B439D4203D9092070BD55694A
:10033000F4E70168491C03D00068401C02D003E0C8
:100340005069FAE70F2070BD2046FFF735FFFFF731
:1003500072FF0028F7D1201D00F0F7F80028F2D135
:1003600060680028F0D100F0E2F8FFF7D3FE00F05B
:10037000BFF8072070BD10B50C46182802D0012028
:10038000086010BD2068FFF777FF206010BD41684E
:10039000054609B1012700E0002740F6F8742068FF
:1003A0004FF01026401C2BD02068AA68920000F065
:1003B000D7FA38B3A86881002068401C27D020688D
:1003C000FFF7BDFED7B12068401C22D026684FF051
:1003D0008050AC686D68016942695143A9420DD9EA
:1003E000016940694143A14208D92146304600F0E5
:1003F000B8F822462946304600F087F800F078F831
:100400007069D2E700F093F8FFF784FEF6E77069B1
:10041000D6E77669DBE740F6FC7420684FF01026DB
:10042000401C23D02068401C0CD02068401C1FD0EA
:100430002568206805F18005401C1BD027683879A5
:10044000AA2819D040F6F8700168491C42D001680A
:10045000491C45D00168491C3ED001680968491C07
:100460003ED00168491C39D000683EE0B069DAE747
:10047000B569DEE7B769E2E710212846FFF778FEA5
:100480003968814222D12068401C05D0D4F8001080
:1004900001F18002C03107E0B169F9E730B108CA63
:1004A00051F8040D984201D1012000E000208A4259
:1004B000F4D158B1286810B1042803D0FEE72846CB
:1004C000FFF765FF3149686808600EE0FFF722FE1C
:1004D00000F00EF87169BBE77169BFE7706904E06D
:1004E0004FF480500168491C01D000F0CBFAFEE7C0
:1004F000BFF34F8F26480168264A01F4E06111439B
:100500000160BFF34F8F00BFFDE72DE9F0411746B3
:100510000D460646002406E03046296800F054F8EF
:10052000641C2D1D361DBC42F6D3BDE8F08140F69B
:10053000FC700168491C04D0D0F800004FF48051D1
:10054000FDE54FF010208069F8E74FF080510A690F
:10055000496900684A43824201D810207047002050
:10056000704770B50C4605464FF4806608E0284693
:1005700000F017F8B44205D3A4F5806405F5805562
:10058000002CF4D170BD0000F40A0000000000202F
:100590000CED00E00400FA05144801680029FCD0C5
:1005A0007047134A0221116010490B68002BFCD0E0
:1005B0000F4B1B1D186008680028FCD0002010603D
:1005C00008680028FCD07047094B10B501221A605A
:1005D000064A1468002CFCD0016010680028FCD08A
:1005E0000020186010680028FCD010BD00E4014015
:1005F00004E5014070B50C46054600F073F810B9EB
:1006000000F07EF828B121462846BDE8704000F091
:1006100007B821462846BDE8704000F037B8000012
:100620007FB5002200920192029203920A0B000B06
:100630006946012302440AE0440900F01F0651F80C
:10064000245003FA06F6354341F82450401C8242F8
:10065000F2D80D490868009A10430860081D016827
:10066000019A1143016000F03DF800280AD00649C4
:1006700010310868029A10430860091D0868039A3F
:10068000104308607FBD00000006004030B50F4CED
:10069000002200BF04EB0213D3F800582DB9D3F8A1
:1006A000045815B9D3F808581DB1521C082AF1D3C3
:1006B00030BD082AFCD204EB0212C2F80008C3F8CD
:1006C00004180220C3F8080830BD000000E0014013
:1006D0004FF08050D0F83001082801D0002070473A
:1006E000012070474FF08050D0F83011062905D016
:1006F000D0F83001401C01D0002070470120704725
:100700004FF08050D0F830010A2801D00020704707
:100710000120704708208F490968095808471020B0
:100720008C4909680958084714208A4909680958FA
:100730000847182087490968095808473020854923
:100740000968095808473820824909680958084744
:100750003C20804909680958084740207D490968BC
:100760000958084744207B49096809580847482028
:1007700078490968095808474C207649096809589A
:10078000084750207349096809580847542071499F
:1007900009680958084758206E49096809580847E8
:1007A0005C206C4909680958084760206949096854
:1007B00009580847642067490968095808476820AC
:1007C00064490968095808476C2062490968095852
:1007D000084770205F4909680958084774205D4937
:1007E00009680958084778205A490968095808478C
:1007F0007C205849096809580847802055490968EC
:10080000095808478420534909680958084788202F
:1008100050490968095808478C204E490968095809
:10082000084790204B4909680958084794204949CE
:10083000096809580847982046490968095808472F
:100840009C204449096809580847A0204149096883
:1008500009580847A4203F49096809580847A820B3
:100860003C49096809580847AC203A4909680958C1
:100870000847B0203749096809580847B420354966
:10088000096809580847B8203249096809580847D3
:10089000BC203049096809580847C0202D4909681B
:1008A00009580847C4202B49096809580847C82037
:1008B0002849096809580847CC2026490968095879
:1008C0000847D0202349096809580847D4202149FE
:1008D000096809580847D8201E4909680958084777
:1008E000DC201C49096809580847E02019490968B3
:1008F00009580847E4201749096809580847E820BB
:100900001449096809580847EC2012490968095830
:100910000847F0200F49096809580847F4200D4995
:10092000096809580847F8200A490968095808471A
:10093000FC2008490968095808475FF48070054998
:10094000096809580847000003480449024A034B54
:100950007047000000000020000B0000000B0000AA
:1009600040EA010310B59B070FD1042A0DD310C82C
:1009700008C9121F9C42F8D020BA19BA884201D97E
:10098000012010BD4FF0FF3010BD1AB1D30703D0C6
:10099000521C07E0002010BD10F8013B11F8014B7C
:1009A0001B1B07D110F8013B11F8014B1B1B01D198
:1009B000921EF1D1184610BD02F0FF0343EA032254
:1009C00042EA024200F005B87047704770474FF0A6
:1009D00000020429C0F0128010F0030C00F01B800C
:1009E000CCF1040CBCF1020F18BF00F8012BA8BF1A
:1009F00020F8022BA1EB0C0100F00DB85FEAC17CDE
:100A000024BF00F8012B00F8012B48BF00F8012B90
:100A100070474FF0000200B51346944696462039C1
:100A200022BFA0E80C50A0E80C50B1F12001BFF4A7
:100A3000F7AF090728BFA0E80C5048BF0CC05DF80D
:100A400004EB890028BF40F8042B08BF704748BF5B
:100A500020F8022B11F0804F18BF00F8012B7047CF
:100A6000014B1B68DB6818470000002009480A4951
:100A70007047FFF7FBFFFFF745FB00BD20BFFDE719
:100A8000064B1847064A1060016881F308884068E1
:100A900000470000000B0000000B000017040000DE
:100AA000000000201EF0040F0CBFEFF30881EFF3ED
:100AB0000981886902380078182803D100E0000015
:100AC000074A1047074A12682C3212681047000084
:100AD00000B5054B1B68054A9B58984700BD0000B0
:100AE0007703000000000020F00A0000040000006E
:100AF000001000000000000000FFFFFF0090D00386
:10100000800A00209DEF00008569000003EF0000CA
:101010008569000085690000856900000000000006
:1010200000000000000000000000000029F00000A7
:1010300085690000000000008569000085690000E6
:1010400091F0000097F000008569000085690000BC
:1010500085690000856900008569000085690000D8
:101060009DF000008569000085690000A3F0000084
:1010700085690000A9F00000AFF00000B5F00000A5
:1010800085690000856900008569000085690000A8
:101090008569000085690000856900008569000098
:1010A00085690000BBF000008569000085690000CB
:1010B0008569000085690000856900008569000078
:1010C000C1F00000856900008569000085690000A5
:1010D0008569000085690000856900008569000058
:1010E0008569000085690000856900008569000048
:1010F0008569000085690000856900008569000038
:10110000856900008569000000F002F80DF035FFE8
:101110000AA090E8000C82448344AAF10107DA4552
:1011200001D10DF02AFFAFF2090EBAE80F0013F05B
:10113000010F18BFFB1A43F001031847F4E0000049
:1011400014E100000A444FF0000C10F8013B13F0CA
:10115000070408BF10F8014B1D1108BF10F8015B10
:10116000641E05D010F8016B641E01F8016BF9D103
:1011700013F0080F1EBF10F8014BAD1C0C1B09D15A
:101180006D1E58BF01F801CBFAD505E014F8016BCC
:1011900001F8016B6D1EF9D59142D6D3704700005E
:1011A0000023002400250026103A28BF78C1FBD870
:1011B000520728BF30C148BF0B6070471FB500F011
:1011C0008FF88DE80F001FBD1EF0040F0CBFEFF36A
:1011D0000880EFF30980014A10470000FB3400004B
:1011E000401E00BF00BF00BF00BF00BF00BF00BF68
:1011F00000BF00BF00BF00BF00BF00BF00BF00BFF7
:1012000000BF00BF00BF00BF00BF00BF00BF00BFE6
:1012100000BF00BF00BF00BF00BF00BF00BF00BFD6
:1012200000BF00BF00BF00BF00BF00BF00BF00BFC6
:1012300000BF00BF00BF00BF00BF00BF00BF00BFB6
:1012400000BF00BF00BF00BF00BF00BF00BF00BFA6
:1012500000BF00BF00BF00BF00BFC1D1704700008A
:10126000401E00BF00BF00BF00BF00BF00BF00BFE7
:1012700000BF00BF00BF00BF00BF00BF00BF00BF76
:1012800000BF00BF00BF00BF00BF00BF00BF00BF66
:1012900000BF00BF00BF00BF00BF00BF00BF00BF56
:1012A00000BF00BF00BF00BF00BF00BF00BF00BF46
:1012B00000BF00BF00BF00BF00BF00BF00BF00BF36
:1012C00000BF00BF00BF00BF00BF00BF00BF00BF26
:1012D00000BF00BF00BF00BF00BFC1D1704700000A
:1012E0000DF048BE4FF0E0224FF400400021C2F85C
:1012F0008001BFF34F8FBFF36F8F1748016001600C
:101300001649900208607047134900B500220A6030
:101310000A60124B4FF060721A60002808BF00BDCF
:101320000F4A104BDFF840C001280CD002281CBF28
:10133000FFDF00BD032008601A604FF4000000BF0B
:10134000CCF8000000BD022008601A604FF0407029
:10135000F6E700B5FFDF00BD00F5004008F50140ED
:101360009401002014F5004004F5014010B5044636
:101370000021012000F065F800210B2000F061F849
:101380000021082000F05DF80421192000F059F830
:1013900004210D2000F055F804210E2000F051F832
:1013A00004210F2000F04DF80421C84300F049F853
:1013B0000621162000F045F80621152000F041F81E
:1013C000204604F06DFA002010BDEE210180704728
:1013D00004F07BBA234870472248704770B5054631
:1013E00021480C460068204920480831086005F073
:1013F0002EF941780F230122002005F01EF9214625
:10140000284605F03DF905F022F94178BDE8704025
:1014100010230122104605F010B9704710B505F0F1
:1014200016F941780D230122002005F006F905F098
:101430000EF9417810230122BDE81040104605F056
:10144000FCB84907090E002804DB00F1E02080F811
:101450000014704700F00F0000F1E02080F8141D28
:101460007047000003F9004210050240010000012E
:101470002DE9F04106461D480C4605681B491C48ED
:101480000831086005F0E3F841780F2301220020BD
:1014900005F0D3F8A6F12000312801D3012009E09E
:1014A000412E15D0134F94E80F0007EB860656F82F
:1014B000806CB04720600D48001D056005F0C7F83E
:1014C0004178BDE8F04110230122104605F0B5B87F
:1014D00005F0BDF8417801221023104605F0ADF863
:1014E00020460DF0F9FCE5E70620704710050240A4
:1014F00001000001F0F0000010B5EFF3108000F0E3
:10150000010472B6F9484178491C417040780128BD
:1015100001D100F0EBFD002C00D162B610BD70B51A
:10152000F24CA07848B90125A570FFF7E5FF00F05F
:10153000EEFD20B1002000F02EFC002070BD4FF029
:101540008040E570C0F80453F7E770B5EFF3108002
:1015500000F0010572B6E54C607800B9FFDF6078F5
:10156000401E6070607808B900F0C4FD002D00D105
:1015700062B670BDDD4810B5817821B10021C1701F
:101580008170FFF7E2FF002010BD10B5044600F0A7
:10159000BEFDD6498978084000D001202060002097
:1015A00010BD10B5FFF7A8FF00F0B1FD0222012326
:1015B000CE49540728B1CE48026023610320087247
:1015C00002E00A72C4F804330020887110BD2DE9CE
:1015D000F84FDFF818934278817889F804200026C4
:1015E00089F80510074689F8066000783546052811
:1015F00012D2DFE800F01203050D0F0001260CE007
:10160000FFF77AFFBB480168C907FCD0022604E057
:10161000B94E02E0B94E00E0FFDF00F08AFD4FF066
:10162000010B4FF0804448B100F08AFDB04205D173
:10163000304600F089FD0028FAD03CE0C4F80CB038
:10164000C4F80451AE490E604FF08051D1F84412F5
:10165000AB4AC1F3423124321160A9493431C1F897
:1016600000B04FF0020AC4F804A3C4F808B0A548BB
:101670000168C94341F3001101F10108016841F01B
:101680001001016002E000BF0DF030FCD4F804014D
:101690000028F9D0304600F057FD0028FAD0B8F104
:1016A000000F04D19748016821F010010160C4F8CF
:1016B00008A3C4F8045199F805004E4680B1387863
:1016C00070B900F024FD804601F0E2FB6FF00042AB
:1016D000B8F1000F02D0C6E9032001E0C6E9030219
:1016E00084480068C00701D000F00DFD387810B1C3
:1016F0003572BDE8F88F4FF01808C4F808835F46CC
:10170000C4F818B04FF42070ADF80000BDF8000028
:10171000411EADF80010F9D2C4F80C51C4F81051B4
:101720007248C01D00F0C6FD3570FFF73AFF6761D3
:101730007349307920310860C4F80483D9E770B563
:10174000050000D1FFDF4FF080424FF0FF30C2F8BC
:1017500008030021C2F80011C2F80411C2F80C11EC
:10176000C2F81011614C617000F0DDFC10B1012075
:10177000A07060705F480068C00701D000F0C3FC33
:101780002846BDE8704022E75848007A002800D07B
:10179000012070472DE9F04F5B484FF0000A85B0FB
:1017A000D0F800B0D1465746574A58490832116020
:1017B0008406D4F8080110B14FF0010801E04FF0A1
:1017C000000801F034FF78B1D4F8240100B1012001
:1017D0008246D4F81C0100B101208146D4F82001D2
:1017E00008B1012700E00027D4F8000100B1012072
:1017F0000490D4F8040100B101200390D4F80C0146
:1018000000B101200290D4F8100100B10120374D41
:101810000190287800260090B8F1000F04D0C4F899
:101820000861012000F0B7FABAF1000F04D0C4F843
:101830002461092000F0AFFAB9F1000F04D0C4F818
:101840001C610A2000F0A7FA27B1C4F820610B2020
:1018500000F0A1FA2548C01D00F034FD00B1FFDF03
:10186000DFF88C800498012780B1C4F80873E87809
:1018700018B1EE70002000F08EFA287A022805D107
:10188000032028720221C8F800102761039808B1CC
:10189000C4F80461029850B1C4F80C61287A032896
:1018A00000D0FFDFC8F800602F72FFF74EFE0198EE
:1018B00038B1C4F81061287A012801D100F060F82D
:1018C0006761009838B12E70287A012801D1FFF79E
:1018D00068FEFFF73AFE0548C01D00F009FD0A4901
:1018E000091DC1F800B005B0BDE8F08F0800002068
:1018F000340C00400C040040010002000100030011
:101900001805004010ED00E0100502400100000144
:1019100010B52F4800F0D6FC2D49C91F40B1012059
:1019200008704FF0E021C1F80002BDE81040E3E587
:10193000087A012801D1FFF734FEBDE810402448A1
:1019400000F0D6BC70B5224CE41FA07808B900F0B6
:10195000D1FB01208507A861207A0026032809D140
:10196000D5F80C0120B9002000F0EEFB0028F7D1DB
:10197000C5F80C6126724FF0FF30C5F8080370BD42
:1019800070B5134CE41F6079F0B1012803D0A17940
:10199000401E814218DA00F0BAFB054601F078FAE1
:1019A0006179012902D9A179491CA1710DB121697F
:1019B00000E0E168411A022902DA11F1020F06DCA7
:1019C0000DB1206100E0E060BDE87040E9E570BD68
:1019D0000F0000202DE9F041044680074FF000057C
:1019E0004FF001060CD56B480560066001F03CFE27
:1019F00020B16948016841F48061016024F002046B
:101A0000E0044FF0FF3705D564484660C0F808731E
:101A100024F48054600003D56148056024F08044BC
:101A2000E0050FD55F48C0F80052C0F808735E4962
:101A30000D60091D0D605C4A04210C3211600661C5
:101A400024F48074A00409D558484660C0F80052B8
:101A5000C0F808735648056024F40054C4F380307D
:101A6000C4F3C031884200D0FFDF14F4404F14D0DB
:101A700050484660C0F808734F488660C0F800526E
:101A8000C0F808734D490D600A1D16608660C0F8E5
:101A900008730D60166024F4404420050AD54848B8
:101AA00046608660C0F80873C0F848734548056012
:101AB00024F4006400F0DEFD4348044200D0FFDF60
:101AC000BDE8F081F0B50022202501234FEA020491
:101AD00020FA02F1C9072DD051B2002910DB00BF56
:101AE0004FEA51174FEA870701F01F0607F1E02779
:101AF00003FA06F6C7F88061BFF34F8FBFF36F8F0D
:101B00000CDB00BF4FEA51174FEA870701F01F06B1
:101B100007F1E02703FA06F6C7F8806204DB01F15B
:101B2000E02181F8004405E001F00F0101F1E0211E
:101B300081F8144D02F10102AA42C9D3F0BD10B5DB
:101B4000224C20600846FFF7FAFD2068FFF742FFAD
:101B50002068FFF7B7FF00F03BF800F0E0FF00F06F
:101B600089FD00F0C8FC01F0C7F8BDE8104000F0A6
:101B700033B910B5154C2068FFF72CFF2068FFF72C
:101B8000A1FF00F077FDFFF7DDFE0020206010BD13
:101B90000A207047FC1F00403C17004000C0004076
:101BA00004E50140008000400485004000D0004072
:101BB00004D5004000E0004000F0004000F5004087
:101BC00000B0004008B50040FEFF0FFD1C000020E3
:101BD00010B5554800F06EFB00B1FFDF5248401CC5
:101BE00000F068FB002800D0FFDF10BD2DE9F14FA9
:101BF0004E4E82B0D6F800B001274B4800F062FB91
:101C0000DFF8248120B9002708F1010000F070FB03
:101C1000474C00254FF0030901206060C4F80051D3
:101C2000C4F80451029931602060DFF808A11BE07C
:101C3000DAF80000C00617D50E2000F068F8EFF3C0
:101C4000108010F0010072B600D001200090C4F89E
:101C50000493D4F8000120B9D4F8040108B90DF0B8
:101C600045F9009800B962B6D4F8000118B9D4F863
:101C700004010028DCD0D4F804010028CCD137B10D
:101C8000C6F800B008F1010000F01CFB11E008F1FB
:101C9000010000F017FB0028B6D1C4F80893C4F87F
:101CA0000451C4F800510E2000F031F81E4800F035
:101CB0001FFB0020BDE8FE8F2DE9F0438DB00D46DF
:101CC000064600240DF110090DF1200818E000BFB0
:101CD00004EB4407102255F8271068460DF076F8FB
:101CE00005EB87071022484679680DF06FF86846C3
:101CF000FFF77CFF10224146B8680DF067F8641CBE
:101D0000B442E5DB0DB00020BDE8F0836EE70028AB
:101D100009DB00F01F02012191404009800000F121
:101D2000E020C0F8801270472000002004E5004049
:101D300000E0004010ED00E070B526490A680AB3E3
:101D40000022154601244B685B1C4B600C2B00D312
:101D50004D600E7904FA06F30E681E420FD0EFF3C1
:101D6000108212F0010272B600D001220C689C436E
:101D70000C6002B962B649680160002070BD521C57
:101D80000C2AE0D3052070BD4FF0E0214FF4800015
:101D9000C1F800027047EFF3108111F0010F72B625
:101DA0004FF0010202FA00F20A48036842EA030215
:101DB000026000D162B6E7E7064800210160416099
:101DC00070470121814003480068084000D001208D
:101DD0007047000024000020B849002008707047B8
:101DE00070B5B74D01232B60B64B1C68002CFCD09E
:101DF000002407E00E6806601E68002EFCD0001D5F
:101E0000091D641C9442F5D300202860186800283E
:101E1000FCD070BD70B5A94E0446AB4D3078022899
:101E200000D0FFDFAC4200D3FFDF7169A748012972
:101E300003D847F23052944201DD03224271491C1B
:101E40007161291BC160A149707800F034F9002844
:101E500000D1FFDF70BD70B5984C0D4661788842A7
:101E600000D0FFDF984E082D4BD2DFE805F04A0482
:101E70001E2D4A4A4A382078022800D0FFDF03206E
:101E80002070A078012801D020B108E0A06800F0FF
:101E90006DF904E004F1080007C8FFF7A1FF052071
:101EA0002070BDE8704001F01DBF02F021F801462E
:101EB000606802F072FFB04202D2616902290BD35E
:101EC0000320FFF768FF12E002F012F80146606895
:101ED00002F063FFB042F3D2BDE870409AE7207889
:101EE00002280AD0052806D0FFDF04202070BDE8B4
:101EF000704000F0D6B8022000E00320FFF74BFF4F
:101F0000F3E7FFDF70BD70B5054601F0F1FF6B4CE4
:101F100060602078012800D0FFDF6C490120087044
:101F20000020087104208D6048716748C860022055
:101F30002070607800F0BFF8002800D1FFDF70BD8E
:101F400010B55E4C207838B90220FFF73AFF18B977
:101F50000320FFF736FF08B1112010BD5C4801F0E7
:101F60003DFF60701F2804D00120207000206061B8
:101F700010BD032010BD2DE9F0471546044600EBC7
:101F800085000E46A0F1040800F003F94FF08051DF
:101F90000A6900FB02F706EB8500001FB04201D280
:101FA000012000E0002081461DB10869B5EB900FCB
:101FB00002D90920BDE8F087204601F065FBB0B9E1
:101FC000A04514D3BC4201D2B84503D341482044B4
:101FD0007C2803D844EA0600800701D01020E9E7F6
:101FE000304601F051FB10B9B9F1000F01D00F20BC
:101FF000E0E7394839490068884205D02A46314629
:102000002046FFF7EDFE1AE0FFF79AFF0028D1D136
:102010002A4800210561C0E90246817001F0DDFA1D
:1020200008B12F4801E04AF2F87068434FF47A7122
:1020300000F2E730B0FBF1F01830FFF764FF00204A
:10204000B8E770B505464FF0805004696C432046F0
:1020500001F01AFB08B10F2070BD00F09AF8A842F9
:1020600001D8102070BD1C481C490068884203D06C
:10207000204600F07BF810E0FFF762FF0028F1D166
:102080000E4801218460817001F0A7FA08B115485B
:1020900000E015481830FFF736FF002070BD00F053
:1020A00035B910B5054C607801F0FFFE00B9FFDFCF
:1020B0000020207010BD02F0CFB900002C000020DD
:1020C00004E5014000E40140105C0C00A002002087
:1020D000571E000080EFFFEF9C000020BEBAFECA32
:1020E00050280500645E0100A85B01000120810703
:1020F000086070470121880741600021C0F8001185
:1021000018480170704717490120087070474FF058
:102110008040D0F80001012803D012480078002840
:1021200000D00120704710480068C00700D001208F
:1021300070470D480C300068C00700D00120704780
:102140000948143000687047074910310A68D20303
:1021500006D509688907B1EB807F01D1012070475E
:102160000020704744000020080400400B4A022170
:1021700011600B490B68002BFCD0084B1B1D18602D
:1021800008680028FCD00020106008680028FCD0F7
:1021900070474FF0805040697047000004E50140EF
:1021A00000E401403F4901200860704770B50D20F0
:1021B00000F059F83C4C0020C4F800010125C4F897
:1021C00004530D2000F060F825604FF0E02160140A
:1021D000C1F8000170BD10B50D2000F044F8324880
:1021E000012141600021C0F80011BDE810400D2020
:1021F00000F04AB82D4810B504682C492C48083125
:10220000086004F024FA41780C230122002004F035
:1022100014FA2549D1F8000101280DD0FFDF234829
:10222000001D046004F013FA417810230122BDE878
:102230001040104604F001BA1A48001D0068002240
:10224000C0B2C1F8002100F0DCFCE8E710B5164888
:10225000D0F800110029FBD0FFF7CCFFBDE81040FB
:102260000D2000F011B800280DDB00F01F02012145
:1022700091404009800000F1E020C0F88011BFF3D8
:102280004F8FBFF36F8F7047002809DB00F01F02EC
:10229000012191404009800000F1E020C0F8801247
:1022A0007047000004D5004000D0004010050240F7
:1022B000010000010021017008467047014600201E
:1022C00008707047EFF3108101F0010172B60278D7
:1022D000012A01D0012200E000220123037001B98C
:1022E00062B60AB1002070474FF400507047E9E72A
:1022F000EFF3108111F0010F72B64FF0000202707F
:1023000000D162B600207047F2E7000010B5134C10
:102310002060201D0160114810300260001D036024
:10232000002010BD0E490A6848F202139A43024386
:102330000A6070470A4A116848F2021301EA030072
:10234000994311607047054B02465B4210201344CD
:10235000FC2B01D8116000207047000000060040EF
:10236000C8060240714909680160002070476F4942
:1023700008600020704701218A0720B1012804D09D
:1023800042F204007047916700E0D1670020704777
:1023900067490120086042F20600704708B504232F
:1023A000634A1907103230B1C1F80433106840F0A5
:1023B000010010600BE0106820F001001060C1F80F
:1023C00008330020C1F808015A4800680090002036
:1023D00008BD011F0B2909D8554910310A6822F0A0
:1023E0001E0242EA400008600020704742F20500E9
:1023F0007047000100F18040C0F8041900207047C8
:10240000000100F18040C0F8081900207047000169
:1024100000F18040D0F800090860002070470128D2
:1024200001D907207047444A52F8200002680A4345
:10243000026000207047012801D9072070473E4AFA
:1024400052F8200002688A43026000207047012889
:1024500001D907207047384A52F820000068086008
:1024600000207047020035494FF0000003D0012AD8
:1024700001D0072070470A60704708B54FF400721A
:10248000510510B1C1F8042308E0C1F80823002069
:10249000C1F8240127481C3000680090002008BDC6
:1024A00008B58022D10510B1C1F8042308E0C1F8B5
:1024B00008230020C1F81C011E4814300068009059
:1024C000002008BD08B54FF48072910510B1C1F825
:1024D000042308E0C1F808230020C1F820011548B2
:1024E000183000680090002008BD10493831096894
:1024F00001600020704770B54FF080450024C5F89A
:10250000084101F076F810B901F07DF828B1C5F85E
:102510002441C5F81C41C5F820414FF0E02080213E
:1025200080F800140121C0F8001170BD00040040C3
:102530000005004008010040B4F1000078050040AB
:102540006249634B0A6863499A42096801D1C1F341
:1025500010010160002070475C495D4B0A685D49CD
:10256000091D9A4201D1C0F3100008600020704795
:102570005649574B0A68574908319A4201D1C0F36E
:10258000100008600020704730B5504B504D1C685B
:1025900042F20803AC4202D0142802D203E0112810
:1025A00001D3184630BDC3004B481844C0F810157D
:1025B000C0F81425002030BD4449454B0A6842F25A
:1025C00009019A4202D0062802D203E0042801D36E
:1025D00008467047404A012142F8301000207047F9
:1025E0003A493B4B0A6842F209019A4202D0062856
:1025F00002D203E0042801D308467047364A01217D
:1026000002EBC00041600020704770B52F4A304E89
:10261000314C156842F2090304EB8002B54204D044
:10262000062804D2C2F8001807E0042801D318468F
:1026300070BDC1F31000C2F80008002070BD70B575
:10264000224A234E244C156842F2090304EB80020F
:10265000B54204D0062804D2D2F8000807E00428C6
:1026600001D3184670BDD2F80008C0F3100008600E
:10267000002070BD174910B50831184808601120B6
:10268000154A002102EBC003C3F81015C3F8141556
:10269000401C1428F6D3002006E0042804D302EBE3
:1026A0008003C3F8001807E002EB8003D3F800486A
:1026B000C4F31004C3F80048401C0628EDD310BD35
:1026C0000449064808310860704700009C0000205B
:1026D000BEBAFECA00F5014000F001400000FEFF56
:1026E00002000B464FF00000014620D0012A04D022
:1026F000022A04D0032A0DD103E0012002E00220C7
:1027000015E00320072B05D2DFE803F00406080AD2
:102710000C0E100007207047012108E0022106E09E
:10272000032104E0042102E0052100E0062101F07C
:1027300076BB0000E24805218170002101704170E4
:102740007047E0490A78012A05D0CA681044C86079
:10275000403802F0EDBA8A6810448860F8E7002833
:1027600019D00378D849D94A13B1012B0ED011E002
:102770000379012B00D06BB943790BB1012B09D13F
:102780008368643B8B4205D2C0680EE00379012B5D
:1027900002D00BB10020704743790BB1012BF9D166
:1027A000C368643B8B42F5D280689042F2D8012026
:1027B0007047C44901220A70027972B100220A717D
:1027C000427962B104224A71826852328A60C068DA
:1027D000C860BB490220887070470322EFE70322DC
:1027E000F1E770B5B74D044600202870207988B114
:1027F00000202871607978B10420B14E6871A16819
:10280000F06800F0E3FFA860E0685230E860032061
:10281000B07070BD0120ECE70320EEE72DE9F04138
:102820000546022602F053F9006800B1FFDFA44C10
:1028300001273DB12878B8B1012805D0022811D070
:10284000032814D027710DE06868C82808D3042134
:1028500002F0CEFA20B16868FFF773FF012603E0AB
:10286000002601E000F014F93046BDE8F081207840
:102870000028F7D16868FFF772FF0028E2D0686887
:10288000017879B1A078042800D0FFDF01216868C1
:10289000FFF7A7FF8B49E07800F003F90028E1D1AA
:1028A000FFDFDFE7FFF785FF6770DBE72DE9F0412A
:1028B000834C0F46E178884200D0FFDF00250126D7
:1028C000082F7DD2DFE807F0040B28283D434F573F
:1028D000A0780328C9D00228C7D0FFDFC5E7A078B9
:1028E000032802D0022800D0FFDF0420A070257149
:1028F0002078B8BB0020FFF724FF72480178012937
:1029000006D08068E060FFF715FD2061002023E01D
:10291000E07801F02EFCF5E7A078032802D0022829
:1029200000D0FFDF207880BB022F08D05FF00500C9
:10293000FFF731FAA078032840D0A57095E704206E
:10294000F6E7A078042800D0FFDF022004E0A0789A
:10295000042800D0FFDF0120A1688847FFF75EFF51
:10296000054633E003E0A078042800D0FFDFBDE88F
:10297000F04100F08DB8A078042804D0617809B146
:10298000022800D0FFDF207818B1BDE8F04100F048
:102990008AB8207920B10620FFF7FDF925710DE0F6
:1029A000607840B14749E07800F07BF800B9FFDF7C
:1029B00065705AE704E00720FFF7EDF9A67054E7C9
:1029C000FFDF52E73DB1012D03D0FFDF022DF9D12A
:1029D0004BE70420C0E70320BEE770B5050004D034
:1029E000374CA078052806D101E0102070BD0820E2
:1029F000FFF7E7F908B1112070BD354801F0EEF995
:102A0000E0701F2806D0012102F0D4FB0020A56051
:102A1000A07070BD032070BD294810B5017809B1C0
:102A2000112010BD8178052906D0012906D029B1D1
:102A300001210170002010BD0F2010BD00F033F8FF
:102A4000F8E770B51E4C0546A07808B1012809D1F9
:102A500055B12846FFF783FE40B1287840B1A078F1
:102A6000012809D00F2070BD102070BD072070BD57
:102A70002846FFF79EFE03E000212846FFF7B1FE3F
:102A80001049E07800F00DF800B9FFDF002070BDBC
:102A90000B4810B50069FFF745FCBDE8104001F098
:102AA00021B901F0D9BC064810B5C07801F0FDF994
:102AB00000B9FFDF0820FFF76EF9BDE8104039E6E6
:102AC00048000020B00200203D860100FF1FA10742
:102AD000AD2800002DE9F04115460E4604460027BA
:102AE00000F0EBF8A84215D3002341200FE000BF0F
:102AF00094F84220A25CF25494F84210491CB1FBB5
:102B0000F0F200FB12115B1C84F84210DBB2AB4206
:102B1000EED3012700F0DDF83846BDE8F0817249B8
:102B200010B5802081F800047049002081F842002F
:102B300081F84100433181F8420081F8410043317E
:102B400081F8420081F841006948FFF7B3FB68480B
:102B5000401CFFF7AFFBFFF725FBBDE8104000F07E
:102B6000B8B840207047614800F0A7B80A4601464F
:102B70005E48AFE7402070475C48433000F09DB8A6
:102B80000A46014659484330A4E74021017000201D
:102B9000704710B504465548863000F08EF8207016
:102BA000002010BD0A460146504810B58630FFF798
:102BB00091FF08B1002010BD42F2070010BD70B5B2
:102BC0000C460646412900D9FFDF4A480068103804
:102BD00040B200F054F8C5B20D2000F050F8C0B279
:102BE000854201D3012504E0002502E00DB1FFF785
:102BF0002DFB224631463D48FFF76CFF0028F5D0FB
:102C000070BD2DE9F0413A4F0025064617F1040743
:102C100057F82540204600F041F810B36D1CEDB286
:102C2000032DF5D33148433000F038F8002825D083
:102C30002E4800F033F8002820D02C48863000F0D1
:102C40002DF800281AD0FFF7C6FA2948FFF73AFBFB
:102C5000B0F5005F00D0FFDFBDE8F0412448FFF78A
:102C600047BB94F841004121265414F8410F401C01
:102C7000B0FBF1F201FB12002070D3E74DE7002812
:102C800004DB00F1E02090F8000405E000F00F0004
:102C900000F1E02090F8140D4009704710F8411F32
:102CA0004122491CB1FBF2F302FB1311407881422F
:102CB00001D1012070470020704710F8411F407873
:102CC000814201D3081A02E0C0F141000844C0B2B9
:102CD000704710B50648FFF7F5FA002803D1BDE8A4
:102CE0001040FFF763BA10BD0DE000E0C002002005
:102CF0005C00002004ED00E04FF0E0214FF0007098
:102D0000C1F8800101F5C071BFF34F8FBFF36F8F22
:102D1000C1F80001424B802283F8002441F8800C66
:102D2000704700B5024604203E4903E001EBC003B2
:102D30001B792BB1401EC0B2F8D2FFDFFF2000BDCF
:102D400041F8302001EBC00100224A718A71012252
:102D50000A7100BD334A002102EBC00001717047C7
:102D600010B50446042800D3FFDF2E4800EBC4044E
:102D70002079012800D0FFDF6079A179401CC0B222
:102D8000814200D060714FF0E0214FF00070C1F837
:102D9000000210BD70B50425224E234C16E02178A8
:102DA00006EBC1000279012A08D1427983799A425F
:102DB00004D04279827156F8310080472078401C57
:102DC000C0B22070042801D3002020706D1EEDB227
:102DD000E5D270BD154810B504681449144808318F
:102DE000086003F034FC41780B230122002003F03B
:102DF00024FC0B4890F800044009042800D0FFDFB1
:102E0000FFF7C8FF0948001D046003F020FC41786B
:102E100010230122BDE81040104603F00EBC000054
:102E200019E000E08C0300206C0000201005024037
:102E30000100000170B5154D2878401CC4B26878B7
:102E4000844202D000F053FB2C7070BD2DE9F0419C
:102E50000E4C4FF0E02600BF00F03EFB0CF046F8B1
:102E600040BF20BF677820786070D6F80052FEF728
:102E7000B3FA854305D1D6F8040210B92078B842D8
:102E8000EAD000F024FB0020BDE8F0816D000020B6
:102E90002DE9F04101264FF0E02231034FF0000808
:102EA0004046C2F88011BFF34F8FBFF36F8F204CA5
:102EB000C4F800010C2000F02EF81E4D2868C04315
:102EC00040F30017286840F010002860C4F804633D
:102ED00026607F1C02E000BF0CF008F8D4F8000167
:102EE0000028F9D01FB9286820F010002860124887
:102EF00005686660C4F80863C4F800810C2000F01F
:102F00000AF82846BDE8F08110B50446FFF7C0FF77
:102F10002060002010BD002809DB00F01F02012105
:102F200091404009800000F1E020C0F88012704715
:102F300000C0004010ED00E008C50040124810B588
:102F4000046813491148086003F081FB01780723E6
:102F50000122002003F071FB01F0D7FE0D48046050
:102F600003F075FB017810230122BDE810401046E4
:102F700003F063BB0849002008604FF0E021022005
:102F8000C1F88002704700001005024001000001F6
:102F90001805024014050240FC1F00400548064A7F
:102FA0000168914201D100210160044901200860BB
:102FB000704700009C000020BEBAFECA40E50140F8
:102FC00010B5431C02E010F8011B71B18107FAD162
:102FD0004FF0013202C88C1A8C4314EAC211F9D0A6
:102FE000C01A0A0603D0C01E10BDC01A10BD0A04C4
:102FF00001D0801E10BD0902FCD0401E10BD000093
:103000002CFFFFFFDBE5B15100200100EE00FFFFC8
:10301000D4000000C1CF6A0088429922EECBC427B9
:103020000DC23255DE68C74D013706942DE9F047D1
:10303000FF4C0646FF21A06800EB061211702178B4
:10304000FF2910D04FF0080909EB011109EB061711
:103050004158C05900F0F4F9002807DDA168207834
:1030600001EB061108702670BDE8F08794F8008027
:1030700045460DE0A06809EB05114158C05900F024
:10308000DFF9002806DCA068A84600EB08100578E8
:10309000FF2DEFD1A06800EB061100EB08100D70BA
:1030A0000670E1E7F0B5E24B0446002001259A687E
:1030B0000C269B780CE000BF05EB0017D75DA742FC
:1030C00004D106EB0017D7598F4204D0401CC0B280
:1030D0008342F1D8FF20F0BD70B501F087FED44CDB
:1030E00008252278A16805EB0212895800F0A8F99A
:1030F000012808DD2178A06805EB01114058BDE8E2
:10310000704001F06ABE01F0E5FCBDE87040FFF7D9
:1031100027BE2DE9F041C64C257801F067FEFF2D52
:103120006ED04FF00808A26808EB0516915900F020
:1031300087F90228A06801DD80595DE000EB0511E8
:1031400009782170022101EB0511425C5AB1521E2F
:103150004254815901F5800121F07F418151284677
:10316000FFF764FF34E00423012203EB051302EBB5
:10317000051250F803C0875CBCF1000F10D0BCF5FD
:10318000007F10D9CCF3080250F806C00CEB423C8B
:103190002CF07F4C40F806C0C3589A1A520A09E036
:1031A000FF2181540AE0825902EB4C3222F07F4227
:1031B0008251002242542846FFF738FF0C21A068B4
:1031C00001EB05114158E06850F827203846904738
:1031D0002078FF2814D001F009FE2278A16808EBBE
:1031E00002124546895800F02BF9012893DD217819
:1031F000A06805EB01114058BDE8F04101F0EDBDBC
:10320000BDE8F081F0B51D4614460E460746FF2B7B
:1032100000D3FFDFA00700D0FFDF8548FF21002299
:10322000C0E90247C5700671017042708270104695
:10323000012204E002EB0013401CE154C0B2A8429A
:10324000F8D3F0BD70B57A4C064665782079854292
:1032500000D3FFDFE06840F825606078401C6070B4
:10326000284670BD2DE9FF5F1D468B460746FF24AB
:1032700001F0BCFDDFF8B891064699F80100B842AC
:1032800000D8FFDF00214FF001084FF00C0A99F839
:103290000220D9F808000EE008EB0113C35CFF2BF5
:1032A0000ED0BB4205D10AEB011350F803C0DC4538
:1032B0000CD0491CC9B28A42EED8FF2C02D00DE0D6
:1032C0000C46F6E799F803108A4203D1FF2004B0B8
:1032D000BDE8F09F1446521C89F8022008EB041147
:1032E0000AEB0412475440F802B00421029B00226A
:1032F000012B01EB04110CD040F801204FF40078B1
:1033000008234FF0020C454513D9E905C90D02D039
:1033100002E04550F2E7414606EB413203EB04136D
:1033200022F07F42C250691A0CEB0412490A815400
:103330000BE005B9012506EB453103EB041321F041
:103340007F41C1500CEB0411425499F800502046C3
:10335000FFF76CFE99F80000A84201D0FFF7BCFE11
:103360003846B4E770B50C46054601F03FFD064609
:1033700021462846FFF796FE0446FF281AD02C4D1A
:10338000082101EB0411A8684158304600F058F8B4
:1033900000F58050C11700EBD14040130221AA680C
:1033A00001EB0411515C09B100EB4120002800DC65
:1033B000012070BD002070BD2DE9F0478846814690
:1033C000FFF770FE0746FF281BD0194D2E78A8681E
:1033D0003146344605E0BC4206D0264600EB0612D4
:1033E0001478FF2CF7D10CE0FF2C0AD0A6420CD1A8
:1033F00000EB011000782870FF2804D0FFF76CFE66
:1034000003E0002030E601F0EEFC41464846FFF7BD
:10341000A9FF0123A968024603EB0413FF20C85447
:10342000A878401EB84200D1A87001EB041001E05A
:10343000AC03002001EB061100780870104613E67B
:10344000081A0002C11700EB11600012704700005B
:1034500010B5202000F07FF8202000F08DF84D49B5
:10346000202081F80004FDF7B5FF4B4908604B4868
:10347000D0F8041341F00101C0F80413D0F804138C
:1034800041F08071C0F80413424901201C39C1F891
:10349000000110BD10B5202000F05DF83E4800216D
:1034A000C8380160001D01603D4A481E10603B4A5B
:1034B000C2F80803384B1960C2F80001C2F8600175
:1034C00038490860BDE81040202000F055B8344964
:1034D0003548091F08607047314933480860704714
:1034E0002D48C8380160001D521E026070472C49EB
:1034F00001200860BFF34F8F70472DE9F041284944
:10350000D0F8188028480860244CD4F80001002521
:10351000244E6F1E28B1404600F0B6F840B9002195
:1035200011E0D4F8600198B1404600F0ADF848B120
:10353000C4F80051C4F860513760BDE8F041202064
:1035400000F01AB831684046BDE8F0410BF0D8BC35
:10355000FFDFBDE8F08100280DDB00F01F02012134
:1035600091404009800000F1E020C0F88011BFF3D5
:103570004F8FBFF36F8F7047002809DB00F01F02E9
:10358000012191404009800000F1E020C0F8801244
:103590007047000020E000E0C80602400000024042
:1035A0001805024000040240010000014FF0805065
:1035B000D0F830010A2801D0002070470120704760
:1035C00000B5FFF7F3FF20B14FF08050D0F8340181
:1035D00008B1002000BD012000BD4FF08050D0F8A0
:1035E0003001062803D0401C01D000207047012084
:1035F00070474FF08050D0F830010D2801D00020E6
:103600007047012070474FF08050D0F830010828F3
:1036100001D000207047012070474FF08050D0F853
:103620003001102801D0002070470120704700B5FC
:10363000FFF7F3FF30B9FFF7DCFF18B9FFF7E3FF3F
:10364000002800D0012000BD00B5FFF7C6FF38B14B
:103650004FF08050D0F83401062803D3401C01D02D
:10366000002000BD012000BD00B5FFF7B6FF48B146
:103670004FF08050D0F83401062803D3401C01D00D
:10368000012000BD002000BD3249884201D2012046
:1036900070470020704770B50446A0F500002E4E1C
:1036A000B0F1786F02D23444A4F500042948844272
:1036B00001D2012500E0002500F043F848B125B90A
:1036C000B44204D32548006808E0012070BD002002
:1036D00070BD002DF9D1B442F9D321488442F6D20D
:1036E000F3E710B50446A0F50000B0F1786F03D2FF
:1036F00019480444A4F5000400F023F84FF0804179
:1037000030B11648006804E08C4204D2012003E086
:1037100013488442F8D2002080F0010010BD10B59B
:1037200020B1FFF7DEFF08B1012010BD002010BD61
:1037300010B520B1FFF7AFFF08B1012010BD002088
:1037400010BD084808490068884201D1012070472F
:1037500000207047002001000000002080000020B1
:10376000080000209C000020BEBAFECA2DE9F041EE
:10377000074690460C46FF480025C2EB481100EB77
:103780004106072F07D2DFE807F007070707040401
:103790000400012500E0FFDF06F81470002D08BFCB
:1037A000BDE8F081F44800EB880191F827001F285C
:1037B0000EBF81F8264006EB400044701F2006EB48
:1037C0004402507081F82740BDE8F08130B50D46C5
:1037D000EA4A44190021101A71EB010038BFFFDFDB
:1037E000E7488542C8BFFFDFE6488542B8BFFFDF34
:1037F000E5488442A8BFE54804DA002CAABF204669
:10380000E14830BD201830BD2DE9F05FDA4D95F864
:103810002D6005EB860090F826401F2C08BFBDE800
:10382000F09FDFF86CA3DFF84C93A9F5F87BC6EBAB
:10383000461009EB4008072718F8140001280AD0A1
:10384000042808BF022706D0052808BF032702D096
:10385000062818BFFFDFBAF1000F18BFAFF30080D2
:10386000EFF3108000F0010072B608EB44014A78D3
:1038700005EB860181F8262091F82720A24204BF9B
:103880001F2281F82720A0B1324621460120FFF7F0
:103890006DFF0BEB0410394602682046904795F8FF
:1038A0002D6005EB860090F826401F2CBFD1BDE8A7
:1038B000F09FB848002818BFAFF3008062B6E3E776
:1038C00010B5AD4C1F2084F8250084F8260084F83C
:1038D0002700002284F8282084F82D2084F82E0068
:1038E000501E2260A06084F8202084F821202277D6
:1038F0006277A277A84884F82F2084F824200270E9
:103900004270A4F17C000F210270827000F8042F35
:10391000491EFAD1012001F0E9FD002001F0E6FD89
:10392000012084F82200FFF7E7F99C48FFF7F9F936
:103930009B4C20709B48FFF7F4F96070BDE8104085
:1039400001F062BD10B501F090FD954C2078FFF7B5
:1039500001FA6078FFF7FEF9874C94F824000028FC
:1039600008BF10BDFDF7F1FD002084F8240010BD54
:103970001F207047002001F0A9BD70B50546012049
:1039800000FA05F40E46002A08BF87480CD0002034
:1039900001F09CFDE90001F1804101F5F831C1F829
:1039A0001005C1F814658148046070BD2DE9F04F21
:1039B0008146714889B000EB8908A0F51B7798F81B
:1039C00025501F2D3ED02C4601F03DFE07EB041183
:1039D000774E4A688968121A081A22F07F4220F04E
:1039E0007F40012A04D3B2F5800F01D286421DD256
:1039F0006049C9EB491001EB400BA2460BEB4A00B2
:103A000044781F2C12D001F01EFE07EB04125168FF
:103A10009268091A101A21F07F4120F07F40012995
:103A2000EBD3B1F5800FE8D28642E6D3AC4209D0A1
:103A30004B4652461F21042001F0D1FB09B0002063
:103A4000BDE8F08F5B48002818BFAFF3008001F09D
:103A5000FAFD494C94F82F1069B1E168421C511AE3
:103A60000902CA1701EB126109120029C2BF002026
:103A700009B0BDE8F08F0646CDF8208098F8250003
:103A80001F2835D04FF000084FF0FF3107EB001B27
:103A9000CDF800800291DBE90101DBF80C200592F2
:103AA000CDE903014448B0F88812ADF81C1090F835
:103AB0008A028DF81E009DF8150000280CBF4FF0FB
:103AC000040A4FF0020A3D4951F82070039907EBB0
:103AD0000A02114421F07F410191002F14BF0221FD
:103AE00000218DF81810022818BF012815D035E0E4
:103AF0004FF0010001F0FAFC002001F0F7FC01F0AA
:103B0000DBFC94F8240020B1FDF71FFD002084F8B1
:103B10002400002084F82F00D6E003989DF81C10A4
:103B20003844801B801C20F07F40002918BF0221F0
:103B3000353181420BD203208DF815000398C7F16F
:103B40003201401A20F07F40322703903AE094F887
:103B5000240018B9FEF7DBFA00287DD0322F31D2CD
:103B600077B394F8240060BBFDF7C6FC012084F80D
:103B700024002EE0AC05002028060020FF7F841ED4
:103B80000020A10700E05EF80080841E00807BE139
:103B90000000000000000000710000201331000050
:103BA0006F0000200938000008F5014004F50140CD
:103BB000FFFF3F0000000000BC030020BCF100003C
:103BC00000E006E094F8240018B1FDF7BEFC84F88C
:103BD0002480FE4A1178D1B352780020D21B9DF880
:103BE00018C0039F012916BF0329012300238DF864
:103BF0001E30002A04DDBA1A039201228DF8182023
:103C00009DF81C20002A18BF0220039ADDF810E05E
:103C100022F07F420392921BED4B22F07F42AEEBEB
:103C2000060626F07F46904298BFB2F5800F01D27B
:103C3000B3420CD29DF81D00002808BF032947D0CD
:103C40008DF81C8003978DF818C08DF81E809DF8A4
:103C5000180060B1039800E03AE000EB0A014FF071
:103C600001034FF00002184601F089FC02E0012038
:103C700001F03CFC9BF90C2001230020019901F08C
:103C80007EFC9BF80F0010F0010F18BF01F0FDFD46
:103C9000012084F82F00089880F828809DE80E10F5
:103CA000CC48C0F86C12C0F87022C0F87432C0F86A
:103CB00078C204AD95E80E10C0F87C12C0F88022DE
:103CC000C0F88432C0F888C209B00120BDE8F08F86
:103CD0004B462A461F21042001F081FA09B000203A
:103CE000BDE8F08F2DE9F041BB4C256901F0ABFC3C
:103CF000401B0002C11700EB1160001258BFFFDF2C
:103D000094F82200002818BFFFDF012784F82270F2
:103D100094F82E001F2808BFFFDF94F82E601F20A4
:103D200084F82E00002584F82F5084F8205084F861
:103D30002150A64825600078022816BF03280120DC
:103D400000202077A068B0F1FF3F05D04FF0FF3092
:103D5000A060012001F0CAFB002001F0C7FB01F0C8
:103D60001DFD01F012FD01F0A7FBFEF7A9FC9B4829
:103D7000056005604FF0E0214FF40040C1F880027B
:103D8000FFF7F8F894F82D804046FFF70FFE002863
:103D9000FAD09349C8EB481001EB400010F8160028
:103DA000022804D1424631460620FFF7DFFC84F8A2
:103DB000237004EB880090F826001F2803D0894860
:103DC0004078FEF7CDFF207F002808BFBDE8F081D6
:103DD00001F0CDFC25776577BDE8F08101467E488E
:103DE00010B590F82D207E4BC2EB4210002403EB5F
:103DF000400000BF10F814302BB1631CDCB21F2C44
:103E0000F8D31F2010BD734800EB0410016000219F
:103E1000C17321460120FFF7A9FC204610BD0128EF
:103E200004D0032808BF002936D000E079B36A4ADD
:103E300092F82D30DFF8A8C1C3EB43134FF0000216
:103E40000CEB430313F812C0BCF1000F01D00820A3
:103E50007047521CD2B21F2AF4D35C4A002812BF0A
:103E60000228002151700BD0072915D2DFE801F09C
:103E70001404060B0D1012001B2100E03A215170B2
:103E80001070002070475821F9E77721F7E703E029
:103E90009621F4E7B521F2E7072070474B4810B5AB
:103EA000407801F090FC80B210BD10B51F2815D2EB
:103EB000494991F82D20C2EB4213A1F17C0202EB9B
:103EC000430C1CF810304BB191F82D30C3EB431369
:103ED00002EB430212F81020012A01D0002010BD8D
:103EE00091F82D2001460020FFF740FC012010BD75
:103EF00010B501F0A8FBBDE8104001F064BC2DE94D
:103F0000F04F354A82B002EB810E1F239EF8252028
:103F1000DFF8D4B02F4C4FF000096F4601AD8DF89B
:103F200000301F2A36D0C1EB411304F5F87C0CEBAE
:103F3000430A00BF04EB021303F1040C9B680668FC
:103F4000F31A1B024FEAE37803EB18631B1221D428
:103F5000437ACBB19CF80980B8F1000F14D15BF81B
:103F60002330DCF800C03344DBF800609B1CB44411
:103F70000CF1040CA3EB0C031B024FEAE37C03EBF4
:103F80001C631B12322B05DB3A700AEB420252789B
:103F90001F2ACFD13B782B701F2A53D0DFF840C0A7
:103FA000C1EB41130CEB430804EB0213D0F804C03F
:103FB0005F681E1DA7EB0C0C4FEA0C2C4FEAEC7A45
:103FC0000CEB1A6C5FEA2C2C31D40FE0710000204E
:103FD000FFFF3F00BC0300202806002000F5004042
:103FE000AC0500206F000020BCF1000096F809C06D
:103FF000BCF1000F26D0467A002E23D15BF82CC0EE
:10400000BC440CF10206D0F800C0DBF80070BC44E0
:104010000CF1040CA6EB0C0C4FEA0C2C4FEAEC76DE
:104020000CEB166C4FEA2C2CBCF1320F0ADA2A701A
:104030009B7B90F80AC0634505D908EB4202527891
:104040001F2AB1D191E09DF80420D0E900C304EB10
:104050000212A3EB0C0392684FF0010922F07F4C8F
:104060001A4422F07F42C0E900C29EF825201F2397
:104070006F468DF800301F2A36D0DFF8F0C4C1EB50
:1040800041130CEB430A00BF04EB021303F1040CD1
:104090009B680668F31A1B024FEAE37803EB186388
:1040A0001B1221D4437ACBB19CF80980B8F1000FE0
:1040B00014D15BF82330DCF800C03344DBF8006037
:1040C0009B1CB4440CF1040CA3EB0C031B024FEA41
:1040D000E37C03EB1C631B12322B05DB3A700AEB0B
:1040E000420252781F2ACFD13B782B701F2A3CD036
:1040F000DFF878C4C1EB41130CEB430A04EB021662
:104100004368776806F1040CFB1A1B024FEAE37858
:1041100003EB18631B121CD49CF809302BB390F8E6
:1041200009C0BCF1000F20D15BF82330D0F800C0EB
:104130003B44DBF800709B1CBC440CF1040CA3EB6B
:104140000C031B024FEAE37C03EB1C631B12322BB4
:104150000BDA2A70B37B90F80AC063457FF673AF21
:104160000AEB420252781F2AC8D102B04846BDE885
:10417000F08F70B5FE49FF4A01EB001454F8041F9C
:10418000607A002852F8202011440CBF042002203D
:10419000084420F07F4001F016FB94F90850F64ADD
:1041A00044190021101A71EB010038BFFFDFF348FA
:1041B0008542C8BFFFDFF2488542B8BFFFDFF14844
:1041C0008442A8BFF04803DA002CB8BFED4800DAFB
:1041D0002418204670BD2DE9F04F0546EB4887B006
:1041E0000068C005C00D11D0103840B20028B8BF1B
:1041F00000F00F0000F1E020ACBF90F8000490F850
:10420000140D400908BF4FF0010A01D04FF0000A19
:104210002878002804BFDE4EDE4F40F0D98027B159
:10422000002140F2FF40AFF3008096F82D8000207F
:1042300086F82300814627B1002140F20450AFF3F5
:104240000080BAF1000F23D14446012020EA04087F
:10425000C648C4EB441100EB4101C8EB481200EB27
:1042600042003E220AF0B2FD27B100214FF49360D4
:10427000AFF3008006EB840106EB8800D1F825102F
:10428000C0F8251027B1002140F29C40AFF3008018
:1042900027B1002140F20C50AFF3008001F0D3F9B8
:1042A00004462878EB46002868798DF80A002879BA
:1042B0008DF809007ED0297900225846AB6801F0BC
:1042C00061F896F82E001F281CBF3069401D78D079
:1042D000DDE9001220F07F40511A0090084420F0E0
:1042E0007F40019041465846FFF709FED5E902326A
:1042F000297903A801F046F80098019A001B121BC7
:1043000020F07F40049922F07F42B0F5800F01D267
:10431000914209D2DDE90010401A204424F07F4187
:1043200020F07F40CDE9001027B1002140F212506B
:10433000AFF3008096F82E001F2814D03069009942
:10434000091A0902CA1701EB126109120BD5DDE93E
:104350000021891A20F07F42084420F07F40CDE9F7
:1043600000204FF0010927B1002140F21C50AFF3AB
:10437000008096F8230000287FF451AF27B1002178
:1043800040F22250AFF3008001F05DF9009A019BEA
:10439000121A181A804922F07F4220F07F40B2F5AD
:1043A000800F15D2814213D3BAF1000F1AD113E056
:1043B00000E006E0D5E902232979584600F0E2FF43
:1043C000B2E776484078052838BF052020447FE7CB
:1043D00007B00020BDE8F08F41466846FFF78FFD2B
:1043E00049EA0009B9F1000F2CD09DF80900614A93
:1043F0000099002852F8202011440CBF042002200C
:10440000084420F07F4001F0DEF99DF908605A4B26
:1044100084190021181A71EB010038BFFFDF5748DB
:104420008642C8BFFFDF56488642B8BFFFDF554807
:104430008442A8BF544803DA002CB8BF514800DAC0
:104440002418AC6027B1002140F23550AFF3008052
:1044500007B00120BDE8F08F2DE9F34F4B4887B03E
:10446000884600684A4DC005C00D0ED0103840B2D5
:104470000028B8BF00F00F0000F1E020ACBF90F8BA
:10448000000490F8140D40092AD098F800004FF06D
:10449000000B00281CBF0128FFDF3E4C2CB14FF061
:1044A000000140F2F750AFF30080314907984FF018
:1044B000010A01EB0010009024B1002140F2FF50EE
:1044C000AFF30080BAF1000F17D000BF95F82D6050
:1044D0004FF0000985F82390BBF1000F14D041E0A4
:1044E00095F82E004FF0010B1F2808BFFFDF98F84A
:1044F0000000002818BFFFDFCFE72948002818BFB9
:10450000AFF3008062B6E1E73746012020EA0706F4
:104510001648C7EB471100EB4101C6EB461200EB12
:1045200042003E220AF052FC24B100214FF4936075
:10453000AFF3008005EB870105EB8600D1F825106D
:10454000C0F8251024B1002140F29C40AFF3008058
:1045500024B1002140F20960AFF3008095F82300F8
:104560000028A9D114B300211CE00000AC050020F4
:10457000BC030020BCF10000FF7F841E0020A107C7
:1045800000E05EF80080841E00807BE104ED00E026
:104590002806002000000000FFFF3F0071000020FF
:1045A0000000000040F21360AFF3008001F04BF810
:1045B000074698F800000DF1040A002898F8050055
:1045C0008DF80E0098F804008DF80D005AD098F878
:1045D000041000225046D8F8083000F0D3FE95F8B9
:1045E0002E101F291CBF2869401D53D0DDE9012171
:1045F00020F07F40891A0190084420F07F4002900B
:1046000031465046FFF77BFCD8E90232BA4698F8AB
:10461000041004A800F0B6FE0198029AA0EB0A006C
:1046200020F07F40A2EB0A02059922F07F42B0F50C
:10463000800F01D2914209D2DDE90121891A78184F
:1046400027F07F4220F07F40CDE901200098C07B19
:1046500000F001008DF80F0024B1002140F21D6030
:10466000AFF30080394601A8C6EB4613FE4ADDF8D9
:104670001CA002EB430717F81A20012A18BF022AD0
:104680000FD04BE0D8E9022398F80410504600F010
:1046900079FEDBE7F5494978052938BF0521C819B6
:1046A000A4E7019ADDF808C0521AF14B22F07F42CC
:1046B000ACEB010121F07F41012A6AD3B2F5800FF2
:1046C00067D28B4265D34FF0010905AB04AA31468E
:1046D00000F0C3FD002864D09DF810109DF8142050
:1046E00033468A4261D0052000F079FD07EB4A018C
:1046F00048709DF810001F2803BF05EB860080F866
:1047000025A080F8289007EB400018BF80F801A092
:10471000324651465FF00300FFF728F805EB8600AC
:1047200090F8287024B1002140F22460AFF300809B
:10473000D048002818BFAFF30080EFF3108000F0DE
:10474000010A72B624B1002140F22A60AFF3008062
:1047500095F8230000287FF4AFAE24B1002140F289
:104760003260AFF300809DE80F00B9F1000FC36025
:10477000C0E9011240D024B1002140F23F60AFF304
:10478000008037EA0B0029D095F82E001F2816D09C
:1047900024E0324651460420FEF7E8FF4FF00109BD
:1047A000BCE7324651460420B6E71F2919BF07EB84
:1047B0004100407805EB860090F8250096E724B18B
:1047C000002140F24460AFF300803046FFF7EEF87E
:1047D00020B998F80000E8B3012849D024B100219D
:1047E00040F26160AFF3008085F82D60012085F80C
:1047F000230000BF4FF0010924B1002140F26A609C
:10480000AFF30080BAF1000F3BD024B1002140F299
:104810006E60AFF30080B9F1000F11D095F82D0054
:1048200005EB800090F826001F2809D024B1002154
:1048300040F27560AFF300808F484078FEF790FA41
:1048400024B1002140F27A60AFF3008009B04846FD
:10485000BDE8F08FFFE724B1002140F24C60AFF3D8
:10486000008095F82D2004200799FEF77FFFC1E70F
:10487000002C3FF421AE002140F25760AFF30080DE
:104880001AE67E48002818BFAFF3008062B6BCE786
:104890002DE9F14F7A4D8CB095F82D00002009904C
:1048A0000120784CA5F17C074FF0000B8246089060
:1048B00024B100214FF4D160AFF3008008980028A4
:1048C00039D000BF85F823B024B1002140F28D60BB
:1048D000AFF3008095F82D803E22C8EB48102AEAFD
:1048E000080607EB4001C6EB461007EB4000814687
:1048F0000AF06CFA24B100214FF49360AFF300800A
:1049000005EB860005EB88010090D1F82510C0F872
:10491000251024B1002140F29C40AFF3008095F8AF
:10492000230078B1002C1CBF002140F29360BFD05F
:10493000AFF30080BCE75148002818BFAFF30080F8
:1049400062B6BFE724B1002140F29760AFF3008068
:104950000C9819F8100003286FD1DDF80080CDF80D
:1049600018800C9998F82500884214BF4FF0000970
:104970004FF0010908F1250CC6EB461386461F22AD
:1049800007EB430303E0024603EB42004078884212
:1049900002D01F280AD0F6E71F2807D0864507D186
:1049A00003EB4E0040788CF8000007E058460CE01E
:1049B00003EB400003EB42014078487024B1002132
:1049C00040F23540AFF30080504610EA090F1CBF9B
:1049D00088F828A085F81EB078B324B1002140F2F1
:1049E0009C60AFF30080324601200C99FEF7BEFEBA
:1049F000069890F8288024B1002140F2A760AFF318
:104A000000801C48002818BFAFF30080EFF310802F
:104A100000F0010072B6089024B1002140F2AC60B1
:104A2000AFF3008095F8230040B1002C1CBF00219B
:104A30004FF4D6603FF43CAF7AE727E0B8F1000FBF
:104A400007D095F82E001F2803D13046FEF7AEFFA1
:104A500070B324B1002140F2C460AFF3008085F848
:104A60002D6085F823A00FE0AC0500207100002028
:104A7000FFFF3F00000000006F000020000000006A
:104A800028060020000000000120099024B1002128
:104A900040F2CD60AFF30080089888B124B10021C6
:104AA00040F2D160AFF3008009980DB0BDE8F08FFF
:104AB000002CF1D0002140F2BF60AFF30080E6E7A8
:104AC000FC48002818BFAFF3008062B6E6E701207B
:104AD00000F0FCBCF848007870472DE9F05FDFF883
:104AE000DCB30027ABF5F879012509F51B7480B11B
:104AF000012855D0022800F0D78003281CBFFFDF13
:104B0000BDE8F09F94F82E001F2840F0F38000F0DD
:104B1000D1B894F8240018B9FCF7EEFC84F82450BE
:104B200094F82E001F281ED194F82D8004EB880ADB
:104B30009AF825601F2E08BFFFDFC8EB48100BEB6B
:104B4000400000EB460040788AF825008AF828509B
:104B500084F82350314684F82E6042460220FEF746
:104B600005FE84F82270207E002818BFFFDF84F83D
:104B70002150002000F0BAFCA168B1F1FF3F04D041
:104B800001230022184600F0FAFC94F82E0094F855
:104B90002E1009EB01110A68BDE8F05F01211047F2
:104BA00094F82E001F281ED194F82D8004EB880A5B
:104BB0009AF825601F2E08BFFFDFC8EB48100BEBEB
:104BC000400000EB460040788AF825008AF828501B
:104BD00084F82350314684F82E6042460220FEF7C6
:104BE000C5FD84F82270012000F080FC94F82100BB
:104BF00000281CBFA068B0F1FF3F0BD094F82E0036
:104C000094F82E1009EB01110A68BDE8F05F4FF02F
:104C100006011047207EAA4E01280AD002281CBF98
:104C2000FFDFBDE8F09F84F8205094F8240010BB0B
:104C30001DE0A77700F09BFD3078032804BF65775F
:104C40002577607D9F4951F8200094F8201059B9CC
:104C500050B161680123091A0022184600F08FFC48
:104C600002202076BDE8F09F2776BDE8F09FFCF794
:104C700043FC84F82450A07F002808BF277608D082
:104C8000717860680123411A0022184600F077FC11
:104C9000257694F82E0094F82E1009EB01110A687D
:104CA000BDE8F05F0021104783480078BDE8F05F61
:104CB000FEF756B894F82D8004EB880A9AF8256020
:104CC0001F2E08BFFFDFC8EB48100BEB400000EBC6
:104CD000460040788AF825008AF8285084F8235046
:104CE000314684F82E6042460220FEF73FFD84F8EC
:104CF000227000BF94F82E0094F82E1009EB0111D9
:104D00000A68BDE8F05F0521104710B56E4C94F8B5
:104D10002E001F2808BFFFDF94F82E0094F82E10F5
:104D20006A4A02EB01110A68BDE8104004211047ED
:104D300030B5654C054683B094F82E001F2808BF97
:104D4000FFDFA068B0F1FF3F18BFFFDF94F82E002F
:104D500001AA5E4901EB0010694690F90C00284455
:104D600000F03EFD9DF904000F28CCBF012000207B
:104D7000009908446168084420F07F41A16094F8DC
:104D80002100002804BF03B030BD012303B000227E
:104D9000BDE83040184600F0F2BB4D4A0B1A02F154
:104DA000010CB3EB9C0F3CBF1846704710B5441A7A
:104DB000B4EB9C0F3CBF184610BD9A4203D2101AA8
:104DC0000844401C10BD94429EBFFFDF002010BD70
:104DD000511A0844401C404210BD012300220146E4
:104DE000022000F0CCBB022000F080BB00F02BBC06
:104DF0002DE9F04F344E074683B096F82E008B46CF
:104E00001F2808BFFFDF06F10C0496F82E00DFF81C
:104E1000BC8008EB00191F208DF8000096F82D00CB
:104E200002AA06EB800001A990F825503068D6F858
:104E300010A0384400F0D4FC9DF90800002802DDE1
:104E40000198401C0190D9F808000199642F08448A
:104E500042D3204A0021D21B89413DD3D9F8041006
:104E6000411A21F07F41B1F5800F35D220F07F400B
:104E7000606084F80AB096F82D00DFF84090EC46A8
:104E80001F2D1CBFC0EB401009EB400E44D000BFEB
:104E900008EB051261685368101D591A09024FEAA0
:104EA000E17B01EB1B6109122BD4407AA0B3617A3C
:104EB000B1B131E0000000006F000020AC0500201F
:104EC00071000020BCF1000028060020BC03002077
:104ED000FF7F841EFF1FA10703B00020BDE8F08FF5
:104EE000FE4951F82000096818442368801C1944C1
:104EF000091D401A0002C11700EB11600012322890
:104F00000ADA8CF80050917BA07A814244D90EEBEA
:104F1000450045781F2DBBD1B068B0F1FF3F10D0E0
:104F200000F091FBB168081A0002C11700EB116094
:104F30000012022830DD012000F0D8FA4FF0FF30D7
:104F4000B06096F82D309DF800201F211F2A13BF56
:104F5000052006EB830090F8250000F040F996F854
:104F60002D1096F82E20C1EB411109EB410101EB08
:104F700042014870306838443060012086F82300D0
:104F80009DF800001F2803D0D5484078FDF7E8FEC3
:104F900003B00120BDE8F08FC4F804A003B00020E6
:104FA000BDE8F08F2DE9F05FCE4D804695F82D00DD
:104FB000A5F17C07C0EB401007EB400010F818008B
:104FC000002808BFFFDF95F82D90C74E26B10021BD
:104FD00040F6E800AFF30080C9EB491007EB40044E
:104FE00014F81800012818D0C0B204281CBF0528E6
:104FF000062855D02EB14FF0000140F6F400AFF373
:10500000008009F073FF26B1002140F6FD00AFF3E8
:10501000008014F818000128E6D1012426B10021EF
:1050200040F60410AFF30080CCB3002085F82300D5
:1050300026B1002140F60910AFF3008095F82DB09D
:10504000012020EA0B09CBEB4B1007EB4001C9EB29
:10505000491007EB40003E2209F0B8FE26B10021BE
:105060004FF49360AFF3008005EB8B0005EB890AEA
:10507000D0F82500CAF8250026B1002140F29C4056
:10508000AFF3008095F82300B8B1002E1CBF0021BB
:1050900040F60F10C2D000BFAFF30080BEE705E0BE
:1050A0004A4641460120FEF761FBACE78F480028E5
:1050B00018BFAFF3008062B6B7E726B1002140F613
:1050C0001310AFF300809AF826300AF12601C9EBDD
:1050D000491240461C464FF01F0B07EB42020AF1F3
:1050E000270A04E0A34602EB4B0C9CF801408442E3
:1050F00002D01F2C2BD0F5E71F2C28D0A34204D1BF
:1051000002EB43004078087005E002EB440002EB3C
:105110004B0140784870BAF1000F11D026B1002140
:1051200040F22D40AFF300809AF80000A04207D172
:1051300026B100214FF48660AFF300808AF800B0FA
:105140005EB1002140F23540AFF3008000E026B1AF
:10515000002140F61710AFF300806548002818BF03
:10516000AFF30080EFF3108000F0010472B695F801
:10517000230038B1002E1CBF002140F61D103FF463
:105180004DAF89E785F82D90012085F8230054B1B3
:10519000002E08BFBDE8F09F002140F62A10AFF3B3
:1051A0000080BDE8F09F5148002818BFAFF3008091
:1051B00062B6EDE730B504464A480D4690F82D003A
:1051C0004C49C0EB401001EB400010F814000028DF
:1051D00008BFFFDF484800EB0410C57330BDF0B5D1
:1051E0001F4614460E4605461F2A08BFFFDFC7EBC1
:1051F00047111F2E3F4800EB41023A4902EB4400A1
:1052000001EB870323D002EB4601407891F801C0FF
:1052100048701F2160461F2C06D0014602EB41005A
:10522000A14205704078F8D193F827401F2C1ABF8F
:1052300002EB440484F801C083F826C04FF01F0C31
:1052400002EB410282F801C083F82710F0BD93F809
:1052500025C0407883F82500DBE72DE9F00FDFF863
:1052600084C01F240CEB810CDFF88C909CF825C0C7
:10527000DFF86880147009F5F87ABCF11F0F1CBFC5
:10528000C1EB41140AEB440B3BD000BF09EB0C14FB
:10529000251DA4680668341B2402E71704EB176475
:1052A00024122ED4447A94B16F7A87B958F82440E6
:1052B0002D683444D8F80060A41C35442D1D641BAF
:1052C0002402E51704EB15642412322C19DB82F852
:1052D00000C00BEB4C0C9CF801C00FE0BCF10000CF
:1052E0006F000020280600200000000000000000E1
:1052F00000000000AC050020BC030020BCF11F0F23
:10530000C4D112781A70BCF11F0F1CBFC1EB411140
:105310000AEB410632D000BF09EB0C124468556815
:10532000111D2C1B2402E71704EB1764241214D45C
:10533000497A19B3447A0CBB58F8211029448C1CC3
:105340000168D8F800502944091D611A0902CC17D8
:1053500001EB14610912322910DA83F800C0917B45
:10536000827A914203D8BDE8F00F0020704706EB27
:105370004C0191F801C0BCF11F0FCDD1BDE8F00F79
:105380000120704770B51D4613460E46044600F1D5
:105390000802014682B0184600F022FA94F908008B
:1053A0000F2804DD1F3820722068401C2060002E6A
:1053B0000CBF04200220134951F82610461820681B
:1053C0006946801B20F07F40206094F90800284443
:1053D000C01C1F28B8BF012009DB01AA00F000FA99
:1053E0009DF8040000281CBF0098401C00D00090CD
:1053F0000099206831440844C01C20F07F40606060
:1054000002B070BDBCF1000010B44FF0E0224FF4C8
:1054100000634FF0010C0021C2F8803102F5C07228
:10542000BFF34F8FBFF36F8FDC101460BFF34F8F4C
:10543000BFF36F8FFA4880F80014C01E80F8001484
:10544000F848C0F804C0C0F808C0C0F84011C0F85F
:105450004411C0F84811C2F80031C2F8004142F8C6
:10546000803CC0F800C010BC704730B401204FF041
:10547000E022C5024FF0000CC2F88051BFF34F8FFD
:10548000BFF36F8F0402C2F88041BFF34F8FBFF3A9
:105490006F8FE44B58609860E34801680029FCD1A5
:1054A000C3F840C1C3F844C1C3F848C1C2F8805230
:1054B000C2F8804230BC70474FF0E0204FF40061EA
:1054C000C0F88012C910C0F880127047002804BFCD
:1054D000D6487047012804BFD5487047022804BF4A
:1054E000D448704700B5FFDF002000BD08B5CD49A6
:1054F000002298B1012834D002281CBFFFDF08BD6C
:105500004FF48020C1F80803C1F84803CA4802607C
:10551000C1F84821C7480068009008BD4FF48030AA
:10552000C1F80803C1F84803C44B1A60C1F8402110
:10553000C34BC1031960C349C1F80803C2480260E4
:10554000C1F840214FF0E0238015C3F88001C43139
:10555000BFF34F8FBFF36F8FC1F83C21BB48027080
:1055600008BD4FF40030C1F80803C1F84803B8483B
:105570000260C1F84421AE480068009008BD70B5D3
:10558000DFF8A0C2042600240125B0B1012849D0CB
:1055900002281CBFFFDF70BDAE4A4FF48020012BF4
:1055A000C2F8401518BFCCF80803C2F8404108BF44
:1055B000CCF80403CCF8440370BD881E20F07F4073
:1055C000CCF840054FF48030CCF80803CCF84041CB
:1055D000CCF84403012B18BF00239C494B70994B16
:1055E0001D61DFF874C2CCF800409C4C4FF0020CF7
:1055F000C4F800C0DFF868C2CCF80060DFF848C229
:105600003D32CCF800204A604FF0E02C9A15CCF8DF
:105610008022C3F80403CCF80021D005914A106021
:105620000D7070BD90484FF40032012BC0F840154A
:1056300018BFCCF80823C0F8404108BFCCF80423B9
:10564000CCF8442370BD78480068704770B500F00E
:10565000FEFF017809230122002000F0EEFF8348BD
:1056600005688449824808606E4CD4F840010026E1
:1056700001280AD1D4F8080310F4803F05D04FF474
:105680008030C4F80803C4F84061D4F8440101280C
:105690000DD1D4F8080310F4003F08D04FF40030C7
:1056A000C4F80803C4F844610120FFF716FAD4F8DF
:1056B000480101280DD1D4F8080310F4802F08D038
:1056C0004FF48020C4F80803C4F848610220FFF7B3
:1056D00004FA6948056000F0BAFF0178BDE870403F
:1056E00010230122104600F0A8BF604810B50468DE
:1056F00060495F48086000F0AAFF01780A23012290
:10570000002000F09AFF51490878002808BF0320C4
:105710001FD04B4A4FF0004010604A4AC00BC2F8FD
:105720000803494B00201860C2F840014FF0E02CFC
:105730009315CCF88031C432BFF34F8FBFF36F8F16
:10574000C2F83C0108704A78002A1CBF487000204B
:1057500001D0FFF7C2F94848046000F078FF0178F3
:1057600010230122BDE81040104600F066BF4FF044
:10577000E0214FF40010C1F8000270474FF0E02123
:105780004FF40010C1F8800270472E4901200861D3
:105790004FF0E0210002C1F88002704729494FF420
:1057A0007C10C1F8080300200146820002F180420B
:1057B00002F50042C2F84015C2F84011401CC0B2C8
:1057C0000628F2D37047410A43F609525143C0F309
:1057D000080010FB02F000F5807001EB50207047CC
:1057E000430B48F2376C03FB0CF31B0C4FEA432CC2
:1057F000C1F800C0DFF884C003FB0C0320484CF262
:10580000F72C5843400D10FB0CFC0CEB432303F525
:1058100080735B1213700A681044086070470000C0
:105820000BE000E000B0004004B5004040810040C3
:1058300044B1004048B1004048B5004040B5004088
:1058400008F50140008000404085004074000020C1
:1058500044B5004008B00040048500400885004081
:105860001085004004F5014004B0004010050240DE
:10587000010000011805024014050240F7C2FFFFB5
:105880006F0C010003484068704703490120C1F8CC
:1058900000027047740000200080004007F099BEAD
:1058A000FD4810B5017800290ED101210170FB4897
:1058B00080F83A1001F08BF8F94801F0A9FDBDE835
:1058C0001040012003F0B1BF10BDF348017800295A
:1058D00007D000210170F14880F83A10012003F050
:1058E000A4BF7047EC4810B5007850B101F05EFDE0
:1058F000044601F01DFF002003F097FF1CB10020BB
:1059000010BD022010BD0D2010BD70B516460D460D
:10591000044600F09FFE38B9284600F09BFE18B9F7
:10592000304600F097FE08B1072070BD304604F005
:1059300067FFC0F307212970207009B1002070BDF6
:10594000052070BD2DE9F0410446D6481D46164697
:1059500000780F46401E844203DD44F23300BDE868
:10596000F081072E02D944F22900F8E701F0FEFC8D
:1059700030B132463946204604F01FFA10B107E034
:105980000320ECE72946204604F083FA0028E6D0FD
:1059900040F48040E3E7C34910B50978491E8842C6
:1059A00002DD44F2330010BD04F0B0FA0028FAD052
:1059B00040F4804010BDBB4A10B51278521E904290
:1059C00002DD44F2330010BD02F00AFC0028FAD0D8
:1059D00040F4804010BDB34910B50978491E884293
:1059E00002DD44F2330010BD04F0A4FA0028FAD01E
:1059F00040F4804010BD10B500B1012004F0E3FA7E
:105A0000002801D040F4804010BD70B50446A54880
:105A10000E4615460078401E844202DD44F23300F3
:105A200070BD104600F016FE08B1072070BD2B4671
:105A300032460021204602F0D3FC502802D040F428
:105A4000804070BD002070BD70B5044695480E467C
:105A500015460078401E844202DD44F2330070BDDA
:105A6000104600F0F7FD08B1072070BD2B46324606
:105A7000A021204602F0B4FC502802D040F480401F
:105A800070BD002070BD2DE9F041044685481E46DA
:105A90000F4600781546401E844202DD44F2330072
:105AA0005DE7104600F0D6FD08B1072057E7334602
:105AB0002A463946204603F0B5FB502802D040F470
:105AC00080404CE700204AE710B5044600F0C2FDD4
:105AD00008B1072010BD204603F006FC0028F9D0CD
:105AE00040F4804010BD10B503F00AFC002801D03E
:105AF00040F4804010BD70B505466A480C460078F9
:105B0000401E854202DD44F2330070BD084600F0BD
:105B1000A1FD08B1072070BD284604F089FA207065
:105B2000002070BD10B504F0C4FB002010BD7CB592
:105B300005460C46072802D944F229007CBD0846D8
:105B400000F088FD08B107207CBD206800906068E7
:105B500001906946284603F0EAF900207CBD514ACD
:105B600010B5137844F233025B1E984202DC8B1EA0
:105B70004F2B01D3104610BD02F0A8F9002010BD34
:105B800070B5054647480C460078401E854202DD48
:105B900044F2330070BD084600F05CFD08B10720F8
:105BA00070BD284602F046FF2070002070BD3D4BBE
:105BB00010B51B785B1E984202DD44F2330010BD25
:105BC00002F009FF002010BD364B10B51B785B1E9C
:105BD000984202DD44F2330010BD02F054FF002071
:105BE00010BD304A10B5127844F23303521E904271
:105BF00004DC19B104F059F8002010BD184610BD9E
:105C000070B5054627480C460078401E854202DDE7
:105C100044F2330070BD084600F01CFD08B10720B7
:105C200070BD284604F079F82080002070BD38B59A
:105C30001C4C2478641EA04202DD44F2330038BDBF
:105C40008DF80010090A8DF801108DF802208DF8EA
:105C50000330694603F0F9FF0028F0D040F480409B
:105C600038BDF8B507460F481C46154600780E4665
:105C7000401E874202DD44F23300F8BD084600F0C2
:105C8000E9FC38B9284600F0E5FC18B9204600F0D8
:105C9000E1FC48B10720F8BD900000205806002024
:105CA0009D580000BD0000206946384603F06EFF95
:105CB0009DF800009DF8011040EA012030809DF819
:105CC000020028709DF8030020700020E3E7FC4AE2
:105CD00010B51278521E904202DD44F2330010BD1E
:105CE00004F02BF8002010BDF54A10B51278521EB2
:105CF000904202DD44F2330010BD04F019F8002098
:105D000010BDEF4A10B51278521E904202DD44F2E7
:105D1000330010BD04F01BF8002010BDE84A10B598
:105D20001278521E904202DD44F2330010BD04F09E
:105D30001CF8002010BD70B50546E1480C460078FF
:105D4000401E854202DD44F2330070BD084600F07B
:105D500081FC08B1072070BD284604F00CF82070C3
:105D6000002070BDD64A10B51278521E904202DD56
:105D700044F2330010BD03F0D5FF002010BD70B514
:105D80000C46054600F066FC08B1072070BD2146B0
:105D9000284604F0F5FA0028F8D040F4804070BDA1
:105DA00070B505460C46084600F054FC08B10720C3
:105DB00070BD2146284604F01AFB0028F8D040F4B4
:105DC000804070BD10B503F0B5FE002801D040F44E
:105DD000804010BD10B503F0B6FE002010BD10B518
:105DE000044600F037FC08B1072010BD03F0B1FEF7
:105DF0002070002010BD7CB50646B14815460C4603
:105E00000078401E864202DD44F233007CBD084625
:105E100000F020FC08B107207CBD20788DF8000040
:105E200060788DF80100A0788DF80200E0788DF898
:105E300003008DF804506946304603F085FA0028C7
:105E4000EAD040F480407CBD08B59D4B1B785B1EBA
:105E5000984202DD44F2330008BD8DF800108DF841
:105E60000120694603F056FA0028F5D040F480403E
:105E700008BD10B5924C2478641EA04202DD44F2A5
:105E8000330010BD03F08BFA002010BD10B503F0F5
:105E90007BFA002010BD38B5044600F0DBFB08B1EA
:105EA000072038BD684603F073FA9DF800009DF89E
:105EB000011040EA01202080002038BD70B5054661
:105EC0000C46084600F0C6FB08B1072070BD21460D
:105ED000284604F020FE0028F8D040F4804070BD31
:105EE00070B505460C46084600F0B4FB08B1072023
:105EF00070BD2146284604F01EFE0028F8D040F46C
:105F0000804070BD6E4A10B51278521E904202DD7C
:105F100044F2330010BD04F01EFE0028FAD040F415
:105F2000804010BD10B5664C2478641EA04202DD8E
:105F300044F2330010BD04F01EFE0028FAD040F4F5
:105F4000804010BD70B505460C46084600F082FB47
:105F500008B1072070BD2146284604F004FF002840
:105F6000F8D040F4804070BD70B505460C46084638
:105F700000F070FB08B1072070BD2146284604F0F0
:105F800013FF0028F8D040F4804070BD70B505467E
:105F90000C46084600F05EFB08B1072070BD2146A4
:105FA000284604F014FF002070BD10B504F021FF56
:105FB000002801D040F4804010BD70B50C46054665
:105FC00000F048FB18B9204600F044FB08B1072058
:105FD00070BD2146284604F04EFF002070BD70B50C
